{
  "contractName": "SocialSecurity",
  "abi": [
    {
      "inputs": [
        {
          "internalType": "address",
          "name": "",
          "type": "address"
        }
      ],
      "name": "beneficiaries",
      "outputs": [
        {
          "internalType": "uint256",
          "name": "id",
          "type": "uint256"
        },
        {
          "internalType": "string",
          "name": "name",
          "type": "string"
        },
        {
          "internalType": "uint256",
          "name": "balance",
          "type": "uint256"
        }
      ],
      "stateMutability": "view",
      "type": "function"
    },
    {
      "inputs": [],
      "name": "beneficiaryCount",
      "outputs": [
        {
          "internalType": "uint256",
          "name": "",
          "type": "uint256"
        }
      ],
      "stateMutability": "view",
      "type": "function"
    },
    {
      "inputs": [
        {
          "internalType": "address",
          "name": "_address",
          "type": "address"
        },
        {
          "internalType": "uint256",
          "name": "_id",
          "type": "uint256"
        },
        {
          "internalType": "string",
          "name": "_name",
          "type": "string"
        }
      ],
      "name": "registerBeneficiary",
      "outputs": [],
      "stateMutability": "nonpayable",
      "type": "function"
    },
    {
      "inputs": [
        {
          "internalType": "address",
          "name": "_beneficiary",
          "type": "address"
        }
      ],
      "name": "contribute",
      "outputs": [],
      "stateMutability": "payable",
      "type": "function"
    },
    {
      "inputs": [
        {
          "internalType": "uint256",
          "name": "_amount",
          "type": "uint256"
        }
      ],
      "name": "withdraw",
      "outputs": [],
      "stateMutability": "nonpayable",
      "type": "function"
    }
  ],
  "bytecode": "0x608060405234801561001057600080fd5b506109fc806100206000396000f3fe60806040526004361061004a5760003560e01c8063015677391461004f5780632e1a7d4d1461008e578063734b2a7c146100b757806373e888fd146100e25780638e7666da146100fe575b600080fd5b34801561005b57600080fd5b5061007660048036038101906100719190610540565b610127565b604051610085939291906106bc565b60405180910390f35b34801561009a57600080fd5b506100b560048036038101906100b091906105d0565b6101d9565b005b3480156100c357600080fd5b506100cc6102ff565b6040516100d991906106a1565b60405180910390f35b6100fc60048036038101906100f79190610540565b610305565b005b34801561010a57600080fd5b5061012560048036038101906101209190610569565b610360565b005b60006020528060005260406000206000915090508060000154908060010180546101509061087f565b80601f016020809104026020016040519081016040528092919081815260200182805461017c9061087f565b80156101c95780601f1061019e576101008083540402835291602001916101c9565b820191906000526020600020905b8154815290600101906020018083116101ac57829003601f168201915b5050505050908060020154905083565b806000803373ffffffffffffffffffffffffffffffffffffffff1673ffffffffffffffffffffffffffffffffffffffff16815260200190815260200160002060020154101561025d576040517f08c379a000000000000000000000000000000000000000000000000000000000815260040161025490610681565b60405180910390fd5b806000803373ffffffffffffffffffffffffffffffffffffffff1673ffffffffffffffffffffffffffffffffffffffff16815260200190815260200160002060020160008282546102ae91906107cd565b925050819055503373ffffffffffffffffffffffffffffffffffffffff166108fc829081150290604051600060405180830381858888f193505050501580156102fb573d6000803e3d6000fd5b5050565b60015481565b346000808373ffffffffffffffffffffffffffffffffffffffff1673ffffffffffffffffffffffffffffffffffffffff16815260200190815260200160002060020160008282546103569190610777565b9250508190555050565b604051806060016040528083815260200182815260200160008152506000808573ffffffffffffffffffffffffffffffffffffffff1673ffffffffffffffffffffffffffffffffffffffff1681526020019081526020016000206000820151816000015560208201518160010190805190602001906103e092919061040b565b506040820151816002015590505060016000815480929190610401906108b1565b9190505550505050565b8280546104179061087f565b90600052602060002090601f0160209004810192826104395760008555610480565b82601f1061045257805160ff1916838001178555610480565b82800160010185558215610480579182015b8281111561047f578251825591602001919060010190610464565b5b50905061048d9190610491565b5090565b5b808211156104aa576000816000905550600101610492565b5090565b60006104c16104bc8461072b565b6106fa565b9050828152602081018484840111156104d957600080fd5b6104e484828561083d565b509392505050565b6000813590506104fb81610998565b92915050565b600082601f83011261051257600080fd5b81356105228482602086016104ae565b91505092915050565b60008135905061053a816109af565b92915050565b60006020828403121561055257600080fd5b6000610560848285016104ec565b91505092915050565b60008060006060848603121561057e57600080fd5b600061058c868287016104ec565b935050602061059d8682870161052b565b925050604084013567ffffffffffffffff8111156105ba57600080fd5b6105c686828701610501565b9150509250925092565b6000602082840312156105e257600080fd5b60006105f08482850161052b565b91505092915050565b60006106048261075b565b61060e8185610766565b935061061e81856020860161084c565b61062781610987565b840191505092915050565b600061063f601483610766565b91507f496e73756666696369656e742062616c616e63650000000000000000000000006000830152602082019050919050565b61067b81610833565b82525050565b6000602082019050818103600083015261069a81610632565b9050919050565b60006020820190506106b66000830184610672565b92915050565b60006060820190506106d16000830186610672565b81810360208301526106e381856105f9565b90506106f26040830184610672565b949350505050565b6000604051905081810181811067ffffffffffffffff8211171561072157610720610958565b5b8060405250919050565b600067ffffffffffffffff82111561074657610745610958565b5b601f19601f8301169050602081019050919050565b600081519050919050565b600082825260208201905092915050565b600061078282610833565b915061078d83610833565b9250827fffffffffffffffffffffffffffffffffffffffffffffffffffffffffffffffff038211156107c2576107c16108fa565b5b828201905092915050565b60006107d882610833565b91506107e383610833565b9250828210156107f6576107f56108fa565b5b828203905092915050565b600061080c82610813565b9050919050565b600073ffffffffffffffffffffffffffffffffffffffff82169050919050565b6000819050919050565b82818337600083830152505050565b60005b8381101561086a57808201518184015260208101905061084f565b83811115610879576000848401525b50505050565b6000600282049050600182168061089757607f821691505b602082108114156108ab576108aa610929565b5b50919050565b60006108bc82610833565b91507fffffffffffffffffffffffffffffffffffffffffffffffffffffffffffffffff8214156108ef576108ee6108fa565b5b600182019050919050565b7f4e487b7100000000000000000000000000000000000000000000000000000000600052601160045260246000fd5b7f4e487b7100000000000000000000000000000000000000000000000000000000600052602260045260246000fd5b7f4e487b7100000000000000000000000000000000000000000000000000000000600052604160045260246000fd5b6000601f19601f8301169050919050565b6109a181610801565b81146109ac57600080fd5b50565b6109b881610833565b81146109c357600080fd5b5056fea2646970667358221220ea044ae75edddf05eb54942b0d243efdcd7dce46ad0e822ffb6c1265a0effd0964736f6c63430008000033",
  "immutableReferences": {},
  "source": "// SPDX-License-Identifier: MIT\r\npragma solidity ^0.8.0;\r\n\r\ncontract SocialSecurity {\r\n    struct Beneficiary {\r\n        uint id;\r\n        string name;\r\n        uint balance;\r\n    }\r\n\r\n    mapping(address => Beneficiary) public beneficiaries;\r\n    uint public beneficiaryCount;\r\n\r\n    function registerBeneficiary(address _address, uint _id, string memory _name) public {\r\n        beneficiaries[_address] = Beneficiary(_id, _name, 0);\r\n        beneficiaryCount++;\r\n    }\r\n\r\n    function contribute(address _beneficiary) public payable {\r\n        beneficiaries[_beneficiary].balance += msg.value;\r\n    }\r\n\r\n    function withdraw(uint _amount) public {\r\n        require(beneficiaries[msg.sender].balance >= _amount, \"Insufficient balance\");\r\n        beneficiaries[msg.sender].balance -= _amount;\r\n        payable(msg.sender).transfer(_amount);\r\n    }\r\n}\r\n",
  "sourcePath": "C:\\Users\\thor0\\Downloads\\Telegram Desktop\\blockchain-social-security\\blockchain-social-security\\contracts\\SocialSecurity.sol",
  "compiler": {
    "name": "solc",
    "version": "0.8.0+commit.c7dfd78e.Emscripten.clang"
  },
  "schemaVersion": "3.4.16",
  "updatedAt": "2024-09-06T08:30:29.591Z",
  "devdoc": {
    "kind": "dev",
    "methods": {},
    "version": 1
  },
  "userdoc": {
    "kind": "user",
    "methods": {},
    "version": 1
  }
}